{
    "_format": "hh-sol-artifact-1",
    "contractName": "Domains",
    "sourceName": "contracts/Domains.sol",
    "abi": [
        {
            "inputs": [
                {
                    "internalType": "string",
                    "name": "_tld",
                    "type": "string"
                }
            ],
            "stateMutability": "payable",
            "type": "constructor"
        },
        {
            "inputs": [],
            "name": "AlreadyRegistered",
            "type": "error"
        },
        {
            "inputs": [
                {
                    "internalType": "string",
                    "name": "name",
                    "type": "string"
                }
            ],
            "name": "InvalidName",
            "type": "error"
        },
        {
            "inputs": [],
            "name": "Unauthorized",
            "type": "error"
        },
        {
            "anonymous": false,
            "inputs": [
                {
                    "indexed": true,
                    "internalType": "address",
                    "name": "owner",
                    "type": "address"
                },
                {
                    "indexed": true,
                    "internalType": "address",
                    "name": "approved",
                    "type": "address"
                },
                {
                    "indexed": true,
                    "internalType": "uint256",
                    "name": "tokenId",
                    "type": "uint256"
                }
            ],
            "name": "Approval",
            "type": "event"
        },
        {
            "anonymous": false,
            "inputs": [
                {
                    "indexed": true,
                    "internalType": "address",
                    "name": "owner",
                    "type": "address"
                },
                {
                    "indexed": true,
                    "internalType": "address",
                    "name": "operator",
                    "type": "address"
                },
                {
                    "indexed": false,
                    "internalType": "bool",
                    "name": "approved",
                    "type": "bool"
                }
            ],
            "name": "ApprovalForAll",
            "type": "event"
        },
        {
            "anonymous": false,
            "inputs": [
                {
                    "indexed": true,
                    "internalType": "address",
                    "name": "from",
                    "type": "address"
                },
                {
                    "indexed": true,
                    "internalType": "address",
                    "name": "to",
                    "type": "address"
                },
                {
                    "indexed": true,
                    "internalType": "uint256",
                    "name": "tokenId",
                    "type": "uint256"
                }
            ],
            "name": "Transfer",
            "type": "event"
        },
        {
            "inputs": [
                {
                    "internalType": "address",
                    "name": "to",
                    "type": "address"
                },
                {
                    "internalType": "uint256",
                    "name": "tokenId",
                    "type": "uint256"
                }
            ],
            "name": "approve",
            "outputs": [],
            "stateMutability": "nonpayable",
            "type": "function"
        },
        {
            "inputs": [
                {
                    "internalType": "address",
                    "name": "owner",
                    "type": "address"
                }
            ],
            "name": "balanceOf",
            "outputs": [
                {
                    "internalType": "uint256",
                    "name": "",
                    "type": "uint256"
                }
            ],
            "stateMutability": "view",
            "type": "function"
        },
        {
            "inputs": [
                {
                    "internalType": "string",
                    "name": "",
                    "type": "string"
                }
            ],
            "name": "domains",
            "outputs": [
                {
                    "internalType": "address",
                    "name": "",
                    "type": "address"
                }
            ],
            "stateMutability": "view",
            "type": "function"
        },
        {
            "inputs": [
                {
                    "internalType": "string",
                    "name": "name",
                    "type": "string"
                }
            ],
            "name": "getAddress",
            "outputs": [
                {
                    "internalType": "address",
                    "name": "",
                    "type": "address"
                }
            ],
            "stateMutability": "view",
            "type": "function"
        },
        {
            "inputs": [],
            "name": "getAllNames",
            "outputs": [
                {
                    "internalType": "string[]",
                    "name": "",
                    "type": "string[]"
                }
            ],
            "stateMutability": "view",
            "type": "function"
        },
        {
            "inputs": [
                {
                    "internalType": "uint256",
                    "name": "tokenId",
                    "type": "uint256"
                }
            ],
            "name": "getApproved",
            "outputs": [
                {
                    "internalType": "address",
                    "name": "",
                    "type": "address"
                }
            ],
            "stateMutability": "view",
            "type": "function"
        },
        {
            "inputs": [],
            "name": "getCurrentTokenId",
            "outputs": [
                {
                    "internalType": "uint256",
                    "name": "",
                    "type": "uint256"
                }
            ],
            "stateMutability": "view",
            "type": "function"
        },
        {
            "inputs": [
                {
                    "internalType": "string",
                    "name": "name",
                    "type": "string"
                }
            ],
            "name": "getRecord",
            "outputs": [
                {
                    "internalType": "string",
                    "name": "",
                    "type": "string"
                }
            ],
            "stateMutability": "view",
            "type": "function"
        },
        {
            "inputs": [
                {
                    "internalType": "address",
                    "name": "owner",
                    "type": "address"
                },
                {
                    "internalType": "address",
                    "name": "operator",
                    "type": "address"
                }
            ],
            "name": "isApprovedForAll",
            "outputs": [
                {
                    "internalType": "bool",
                    "name": "",
                    "type": "bool"
                }
            ],
            "stateMutability": "view",
            "type": "function"
        },
        {
            "inputs": [],
            "name": "isOwner",
            "outputs": [
                {
                    "internalType": "bool",
                    "name": "",
                    "type": "bool"
                }
            ],
            "stateMutability": "view",
            "type": "function"
        },
        {
            "inputs": [],
            "name": "name",
            "outputs": [
                {
                    "internalType": "string",
                    "name": "",
                    "type": "string"
                }
            ],
            "stateMutability": "view",
            "type": "function"
        },
        {
            "inputs": [
                {
                    "internalType": "uint256",
                    "name": "",
                    "type": "uint256"
                }
            ],
            "name": "names",
            "outputs": [
                {
                    "internalType": "string",
                    "name": "",
                    "type": "string"
                }
            ],
            "stateMutability": "view",
            "type": "function"
        },
        {
            "inputs": [],
            "name": "owner",
            "outputs": [
                {
                    "internalType": "address payable",
                    "name": "",
                    "type": "address"
                }
            ],
            "stateMutability": "view",
            "type": "function"
        },
        {
            "inputs": [
                {
                    "internalType": "uint256",
                    "name": "tokenId",
                    "type": "uint256"
                }
            ],
            "name": "ownerOf",
            "outputs": [
                {
                    "internalType": "address",
                    "name": "",
                    "type": "address"
                }
            ],
            "stateMutability": "view",
            "type": "function"
        },
        {
            "inputs": [
                {
                    "internalType": "string",
                    "name": "name",
                    "type": "string"
                }
            ],
            "name": "price",
            "outputs": [
                {
                    "internalType": "uint256",
                    "name": "",
                    "type": "uint256"
                }
            ],
            "stateMutability": "pure",
            "type": "function"
        },
        {
            "inputs": [
                {
                    "internalType": "string",
                    "name": "",
                    "type": "string"
                }
            ],
            "name": "records",
            "outputs": [
                {
                    "internalType": "string",
                    "name": "",
                    "type": "string"
                }
            ],
            "stateMutability": "view",
            "type": "function"
        },
        {
            "inputs": [
                {
                    "internalType": "string",
                    "name": "name",
                    "type": "string"
                }
            ],
            "name": "register",
            "outputs": [],
            "stateMutability": "payable",
            "type": "function"
        },
        {
            "inputs": [
                {
                    "internalType": "address",
                    "name": "from",
                    "type": "address"
                },
                {
                    "internalType": "address",
                    "name": "to",
                    "type": "address"
                },
                {
                    "internalType": "uint256",
                    "name": "tokenId",
                    "type": "uint256"
                }
            ],
            "name": "safeTransferFrom",
            "outputs": [],
            "stateMutability": "nonpayable",
            "type": "function"
        },
        {
            "inputs": [
                {
                    "internalType": "address",
                    "name": "from",
                    "type": "address"
                },
                {
                    "internalType": "address",
                    "name": "to",
                    "type": "address"
                },
                {
                    "internalType": "uint256",
                    "name": "tokenId",
                    "type": "uint256"
                },
                {
                    "internalType": "bytes",
                    "name": "_data",
                    "type": "bytes"
                }
            ],
            "name": "safeTransferFrom",
            "outputs": [],
            "stateMutability": "nonpayable",
            "type": "function"
        },
        {
            "inputs": [
                {
                    "internalType": "address",
                    "name": "operator",
                    "type": "address"
                },
                {
                    "internalType": "bool",
                    "name": "approved",
                    "type": "bool"
                }
            ],
            "name": "setApprovalForAll",
            "outputs": [],
            "stateMutability": "nonpayable",
            "type": "function"
        },
        {
            "inputs": [
                {
                    "internalType": "string",
                    "name": "name",
                    "type": "string"
                },
                {
                    "internalType": "string",
                    "name": "record",
                    "type": "string"
                }
            ],
            "name": "setRecord",
            "outputs": [],
            "stateMutability": "nonpayable",
            "type": "function"
        },
        {
            "inputs": [
                {
                    "internalType": "bytes4",
                    "name": "interfaceId",
                    "type": "bytes4"
                }
            ],
            "name": "supportsInterface",
            "outputs": [
                {
                    "internalType": "bool",
                    "name": "",
                    "type": "bool"
                }
            ],
            "stateMutability": "view",
            "type": "function"
        },
        {
            "inputs": [],
            "name": "symbol",
            "outputs": [
                {
                    "internalType": "string",
                    "name": "",
                    "type": "string"
                }
            ],
            "stateMutability": "view",
            "type": "function"
        },
        {
            "inputs": [],
            "name": "tld",
            "outputs": [
                {
                    "internalType": "string",
                    "name": "",
                    "type": "string"
                }
            ],
            "stateMutability": "view",
            "type": "function"
        },
        {
            "inputs": [
                {
                    "internalType": "uint256",
                    "name": "tokenId",
                    "type": "uint256"
                }
            ],
            "name": "tokenURI",
            "outputs": [
                {
                    "internalType": "string",
                    "name": "",
                    "type": "string"
                }
            ],
            "stateMutability": "view",
            "type": "function"
        },
        {
            "inputs": [
                {
                    "internalType": "address",
                    "name": "from",
                    "type": "address"
                },
                {
                    "internalType": "address",
                    "name": "to",
                    "type": "address"
                },
                {
                    "internalType": "uint256",
                    "name": "tokenId",
                    "type": "uint256"
                }
            ],
            "name": "transferFrom",
            "outputs": [],
            "stateMutability": "nonpayable",
            "type": "function"
        },
        {
            "inputs": [
                {
                    "internalType": "string",
                    "name": "name",
                    "type": "string"
                }
            ],
            "name": "valid",
            "outputs": [
                {
                    "internalType": "bool",
                    "name": "",
                    "type": "bool"
                }
            ],
            "stateMutability": "pure",
            "type": "function"
        },
        {
            "inputs": [],
            "name": "withdraw",
            "outputs": [],
            "stateMutability": "nonpayable",
            "type": "function"
        }
    ],
    "bytecode": "0x6080604052604051806108c001604052806108a08152602001620054b96108a091396009908051906020019062000038929190620002c8565b506040518060400160405280601581526020017f3c2f747370616e3e3c2f746578743e3c2f7376673e0000000000000000000000815250600a908051906020019062000086929190620002c8565b5060405162005d5938038062005d598339818101604052810190620000ac919062000515565b6040518060400160405280601381526020017f466c616d6275204e616d652053657276696365000000000000000000000000008152506040518060400160405280600381526020017f464e530000000000000000000000000000000000000000000000000000000000815250816000908051906020019062000130929190620002c8565b50806001908051906020019062000149929190620002c8565b50505033600e60006101000a81548173ffffffffffffffffffffffffffffffffffffffff021916908373ffffffffffffffffffffffffffffffffffffffff1602179055508060089080519060200190620001a5929190620002c8565b50620001f26040518060400160405280601881526020017f2573206e616d652073657276696365206465706c6f796564000000000000000081525082620001f960201b62001c631760201c565b5062000663565b6200029b828260405160240162000212929190620005c3565b6040516020818303038152906040527f4b5c4277000000000000000000000000000000000000000000000000000000007bffffffffffffffffffffffffffffffffffffffffffffffffffffffff19166020820180517bffffffffffffffffffffffffffffffffffffffffffffffffffffffff83818316178352505050506200029f60201b60201c565b5050565b60008151905060006a636f6e736f6c652e6c6f679050602083016000808483855afa5050505050565b828054620002d6906200062d565b90600052602060002090601f016020900481019282620002fa576000855562000346565b82601f106200031557805160ff191683800117855562000346565b8280016001018555821562000346579182015b828111156200034557825182559160200191906001019062000328565b5b50905062000355919062000359565b5090565b5b80821115620003745760008160009055506001016200035a565b5090565b6000604051905090565b600080fd5b600080fd5b600080fd5b600080fd5b6000601f19601f8301169050919050565b7f4e487b7100000000000000000000000000000000000000000000000000000000600052604160045260246000fd5b620003e18262000396565b810181811067ffffffffffffffff82111715620004035762000402620003a7565b5b80604052505050565b60006200041862000378565b9050620004268282620003d6565b919050565b600067ffffffffffffffff821115620004495762000448620003a7565b5b620004548262000396565b9050602081019050919050565b60005b838110156200048157808201518184015260208101905062000464565b8381111562000491576000848401525b50505050565b6000620004ae620004a8846200042b565b6200040c565b905082815260208101848484011115620004cd57620004cc62000391565b5b620004da84828562000461565b509392505050565b600082601f830112620004fa57620004f96200038c565b5b81516200050c84826020860162000497565b91505092915050565b6000602082840312156200052e576200052d62000382565b5b600082015167ffffffffffffffff8111156200054f576200054e62000387565b5b6200055d84828501620004e2565b91505092915050565b600081519050919050565b600082825260208201905092915050565b60006200058f8262000566565b6200059b818562000571565b9350620005ad81856020860162000461565b620005b88162000396565b840191505092915050565b60006040820190508181036000830152620005df818562000582565b90508181036020830152620005f5818462000582565b90509392505050565b7f4e487b7100000000000000000000000000000000000000000000000000000000600052602260045260246000fd5b600060028204905060018216806200064657607f821691505b602082108114156200065d576200065c620005fe565b5b50919050565b614e4680620006736000396000f3fe6080604052600436106101b75760003560e01c806370a08231116100ec578063bf40fac11161008a578063e985e9c511610064578063e985e9c51461066a578063f2c298be146106a7578063fb825e5f146106c3578063fe2c6198146106ee576101b7565b8063bf40fac1146105c7578063c1880a9814610604578063c87b56dd1461062d576101b7565b806395d89b41116100c657806395d89b411461050d5780639791c09714610538578063a22cb46514610575578063b88d4fde1461059e576101b7565b806370a082311461047a5780638da5cb5b146104b75780638f32d59b146104e2576101b7565b80632d551432116101595780634622ab03116101335780634622ab0314610398578063541e771d146103d557806356189236146104125780636352211e1461043d576101b7565b80632d5514321461032d5780633ccfd60b1461035857806342842e0e1461036f576101b7565b8063095ea7b311610195578063095ea7b31461026157806311dd88451461028a57806323b872dd146102c757806326449235146102f0576101b7565b806301ffc9a7146101bc57806306fdde03146101f9578063081812fc14610224575b600080fd5b3480156101c857600080fd5b506101e360048036038101906101de91906131e4565b61072b565b6040516101f0919061322c565b60405180910390f35b34801561020557600080fd5b5061020e61080d565b60405161021b91906132e0565b60405180910390f35b34801561023057600080fd5b5061024b60048036038101906102469190613338565b61089f565b60405161025891906133a6565b60405180910390f35b34801561026d57600080fd5b50610288600480360381019061028391906133ed565b610924565b005b34801561029657600080fd5b506102b160048036038101906102ac9190613492565b610a3c565b6040516102be91906132e0565b60405180910390f35b3480156102d357600080fd5b506102ee60048036038101906102e991906134df565b610aef565b005b3480156102fc57600080fd5b5061031760048036038101906103129190613662565b610b4f565b60405161032491906133a6565b60405180910390f35b34801561033957600080fd5b50610342610b98565b60405161034f91906132e0565b60405180910390f35b34801561036457600080fd5b5061036d610c26565b005b34801561037b57600080fd5b50610396600480360381019061039191906134df565b610cec565b005b3480156103a457600080fd5b506103bf60048036038101906103ba9190613338565b610d0c565b6040516103cc91906132e0565b60405180910390f35b3480156103e157600080fd5b506103fc60048036038101906103f79190613662565b610dac565b60405161040991906132e0565b60405180910390f35b34801561041e57600080fd5b50610427610e62565b60405161043491906136ba565b60405180910390f35b34801561044957600080fd5b50610464600480360381019061045f9190613338565b610e73565b60405161047191906133a6565b60405180910390f35b34801561048657600080fd5b506104a1600480360381019061049c91906136d5565b610f25565b6040516104ae91906136ba565b60405180910390f35b3480156104c357600080fd5b506104cc610fdd565b6040516104d99190613723565b60405180910390f35b3480156104ee57600080fd5b506104f7611003565b604051610504919061322c565b60405180910390f35b34801561051957600080fd5b5061052261105b565b60405161052f91906132e0565b60405180910390f35b34801561054457600080fd5b5061055f600480360381019061055a9190613492565b6110ed565b60405161056c919061322c565b60405180910390f35b34801561058157600080fd5b5061059c6004803603810190610597919061376a565b6111a1565b005b3480156105aa57600080fd5b506105c560048036038101906105c0919061384b565b6111b7565b005b3480156105d357600080fd5b506105ee60048036038101906105e99190613492565b611219565b6040516105fb91906133a6565b60405180910390f35b34801561061057600080fd5b5061062b600480360381019061062691906138ce565b611264565b005b34801561063957600080fd5b50610654600480360381019061064f9190613338565b61133f565b60405161066191906132e0565b60405180910390f35b34801561067657600080fd5b50610691600480360381019061068c919061394f565b611491565b60405161069e919061322c565b60405180910390f35b6106c160048036038101906106bc9190613492565b611525565b005b3480156106cf57600080fd5b506106d86119e2565b6040516106e59190613a9b565b60405180910390f35b3480156106fa57600080fd5b5061071560048036038101906107109190613492565b611bc0565b60405161072291906136ba565b60405180910390f35b60007f80ac58cd000000000000000000000000000000000000000000000000000000007bffffffffffffffffffffffffffffffffffffffffffffffffffffffff1916827bffffffffffffffffffffffffffffffffffffffffffffffffffffffff191614806107f657507f5b5e139f000000000000000000000000000000000000000000000000000000007bffffffffffffffffffffffffffffffffffffffffffffffffffffffff1916827bffffffffffffffffffffffffffffffffffffffffffffffffffffffff1916145b80610806575061080582611cff565b5b9050919050565b60606000805461081c90613aec565b80601f016020809104026020016040519081016040528092919081815260200182805461084890613aec565b80156108955780601f1061086a57610100808354040283529160200191610895565b820191906000526020600020905b81548152906001019060200180831161087857829003601f168201915b5050505050905090565b60006108aa82611d69565b6108e9576040517f08c379a00000000000000000000000000000000000000000000000000000000081526004016108e090613b90565b60405180910390fd5b6004600083815260200190815260200160002060009054906101000a900473ffffffffffffffffffffffffffffffffffffffff169050919050565b600061092f82610e73565b90508073ffffffffffffffffffffffffffffffffffffffff168373ffffffffffffffffffffffffffffffffffffffff1614156109a0576040517f08c379a000000000000000000000000000000000000000000000000000000000815260040161099790613c22565b60405180910390fd5b8073ffffffffffffffffffffffffffffffffffffffff166109bf611dd5565b73ffffffffffffffffffffffffffffffffffffffff1614806109ee57506109ed816109e8611dd5565b611491565b5b610a2d576040517f08c379a0000000000000000000000000000000000000000000000000000000008152600401610a2490613cb4565b60405180910390fd5b610a378383611ddd565b505050565b6060600c8383604051610a50929190613d04565b90815260200160405180910390208054610a6990613aec565b80601f0160208091040260200160405190810160405280929190818152602001828054610a9590613aec565b8015610ae25780601f10610ab757610100808354040283529160200191610ae2565b820191906000526020600020905b815481529060010190602001808311610ac557829003601f168201915b5050505050905092915050565b610b00610afa611dd5565b82611e96565b610b3f576040517f08c379a0000000000000000000000000000000000000000000000000000000008152600401610b3690613d8f565b60405180910390fd5b610b4a838383611f74565b505050565b600b818051602081018201805184825260208301602085012081835280955050505050506000915054906101000a900473ffffffffffffffffffffffffffffffffffffffff1681565b60088054610ba590613aec565b80601f0160208091040260200160405190810160405280929190818152602001828054610bd190613aec565b8015610c1e5780601f10610bf357610100808354040283529160200191610c1e565b820191906000526020600020905b815481529060010190602001808311610c0157829003601f168201915b505050505081565b610c2e611003565b610c3757600080fd5b600047905060003373ffffffffffffffffffffffffffffffffffffffff1682604051610c6290613de0565b60006040518083038185875af1925050503d8060008114610c9f576040519150601f19603f3d011682016040523d82523d6000602084013e610ca4565b606091505b5050905080610ce8576040517f08c379a0000000000000000000000000000000000000000000000000000000008152600401610cdf90613e41565b60405180910390fd5b5050565b610d07838383604051806020016040528060008152506111b7565b505050565b600d6020528060005260406000206000915090508054610d2b90613aec565b80601f0160208091040260200160405190810160405280929190818152602001828054610d5790613aec565b8015610da45780601f10610d7957610100808354040283529160200191610da4565b820191906000526020600020905b815481529060010190602001808311610d8757829003601f168201915b505050505081565b600c818051602081018201805184825260208301602085012081835280955050505050506000915090508054610de190613aec565b80601f0160208091040260200160405190810160405280929190818152602001828054610e0d90613aec565b8015610e5a5780601f10610e2f57610100808354040283529160200191610e5a565b820191906000526020600020905b815481529060010190602001808311610e3d57829003601f168201915b505050505081565b6000610e6e60076121db565b905090565b6000806002600084815260200190815260200160002060009054906101000a900473ffffffffffffffffffffffffffffffffffffffff169050600073ffffffffffffffffffffffffffffffffffffffff168173ffffffffffffffffffffffffffffffffffffffff161415610f1c576040517f08c379a0000000000000000000000000000000000000000000000000000000008152600401610f1390613ed3565b60405180910390fd5b80915050919050565b60008073ffffffffffffffffffffffffffffffffffffffff168273ffffffffffffffffffffffffffffffffffffffff161415610f96576040517f08c379a0000000000000000000000000000000000000000000000000000000008152600401610f8d90613f65565b60405180910390fd5b600360008373ffffffffffffffffffffffffffffffffffffffff1673ffffffffffffffffffffffffffffffffffffffff168152602001908152602001600020549050919050565b600e60009054906101000a900473ffffffffffffffffffffffffffffffffffffffff1681565b6000600e60009054906101000a900473ffffffffffffffffffffffffffffffffffffffff1673ffffffffffffffffffffffffffffffffffffffff163373ffffffffffffffffffffffffffffffffffffffff1614905090565b60606001805461106a90613aec565b80601f016020809104026020016040519081016040528092919081815260200182805461109690613aec565b80156110e35780601f106110b8576101008083540402835291602001916110e3565b820191906000526020600020905b8154815290600101906020018083116110c657829003601f168201915b5050505050905090565b6000600361113e84848080601f016020809104026020016040519081016040528093929190818152602001838380828437600081840152601f19601f820116905080830192505050505050506121e9565b101580156111995750600a61119684848080601f016020809104026020016040519081016040528093929190818152602001838380828437600081840152601f19601f820116905080830192505050505050506121e9565b11155b905092915050565b6111b36111ac611dd5565b838361239e565b5050565b6111c86111c2611dd5565b83611e96565b611207576040517f08c379a00000000000000000000000000000000000000000000000000000000081526004016111fe90613d8f565b60405180910390fd5b6112138484848461250b565b50505050565b6000600b838360405161122d929190613d04565b908152602001604051809103902060009054906101000a900473ffffffffffffffffffffffffffffffffffffffff16905092915050565b3373ffffffffffffffffffffffffffffffffffffffff16600b858560405161128d929190613d04565b908152602001604051809103902060009054906101000a900473ffffffffffffffffffffffffffffffffffffffff1673ffffffffffffffffffffffffffffffffffffffff1614611309576040517f82b4290000000000000000000000000000000000000000000000000000000000815260040160405180910390fd5b8181600c868660405161131d929190613d04565b9081526020016040518091039020919061133892919061304f565b5050505050565b606061134a82611d69565b611389576040517f08c379a000000000000000000000000000000000000000000000000000000000815260040161138090613ff7565b60405180910390fd5b60006006600084815260200190815260200160002080546113a990613aec565b80601f01602080910402602001604051908101604052809291908181526020018280546113d590613aec565b80156114225780601f106113f757610100808354040283529160200191611422565b820191906000526020600020905b81548152906001019060200180831161140557829003601f168201915b505050505090506000611433612567565b905060008151141561144957819250505061148c565b60008251111561147e578082604051602001611466929190614048565b6040516020818303038152906040529250505061148c565b6114878461257e565b925050505b919050565b6000600560008473ffffffffffffffffffffffffffffffffffffffff1673ffffffffffffffffffffffffffffffffffffffff16815260200190815260200160002060008373ffffffffffffffffffffffffffffffffffffffff1673ffffffffffffffffffffffffffffffffffffffff16815260200190815260200160002060009054906101000a900460ff16905092915050565b600073ffffffffffffffffffffffffffffffffffffffff16600b838360405161154f929190613d04565b908152602001604051809103902060009054906101000a900473ffffffffffffffffffffffffffffffffffffffff1673ffffffffffffffffffffffffffffffffffffffff16146115cb576040517f3a81d6fc00000000000000000000000000000000000000000000000000000000815260040160405180910390fd5b6115d582826110ed565b6116185781816040517f7f19f48d00000000000000000000000000000000000000000000000000000000815260040161160f929190614099565b60405180910390fd5b60006116248383611bc0565b905080341015611669576040517f08c379a000000000000000000000000000000000000000000000000000000000815260040161166090614109565b60405180910390fd5b60008383600860405160200161168193929190614209565b60405160208183030381529060405290506000600982600a6040516020016116ab9392919061423a565b604051602081830303815290604052905060006116c860076121db565b9050600061171987878080601f016020809104026020016040519081016040528093929190818152602001838380828437600081840152601f19601f820116905080830192505050505050506121e9565b9050600061172682612625565b905061181a604051806060016040528060318152602001614d686031913989898080601f016020809104026020016040519081016040528093929190818152602001838380828437600081840152601f19601f820116905080830192505050505050506008805461179690613aec565b80601f01602080910402602001604051908101604052809291908181526020018280546117c290613aec565b801561180f5780601f106117e45761010080835404028352916020019161180f565b820191906000526020600020905b8154815290600101906020018083116117f257829003601f168201915b505050505086612786565b60006118508661182987612828565b8460405160200161183c939291906143e7565b604051602081830303815290604052612828565b90506000816040516020016118659190614490565b6040516020818303038152906040529050611897604051806060016040528060388152602001614d99603891396129c0565b6118d66040518060400160405280600e81526020017f46696e616c20746f6b656e55524900000000000000000000000000000000000081525082611c63565b6118f7604051806060016040528060388152602001614d99603891396129c0565b6119013386612a59565b61190b8582612a77565b33600b8b8b60405161191e929190613d04565b908152602001604051809103902060006101000a81548173ffffffffffffffffffffffffffffffffffffffff021916908373ffffffffffffffffffffffffffffffffffffffff1602179055506119a96040518060400160405280601b81526020017f2573206861732072656769737465726564206120646f6d61696e21000000000081525033612aeb565b8989600d600088815260200190815260200160002091906119cb92919061304f565b506119d66007612b87565b50505050505050505050565b6060611a226040518060400160405280601f81526020017f47657474696e6720616c6c206e616d65732066726f6d20636f6e7472616374008152506129c0565b6000611a2e60076121db565b67ffffffffffffffff811115611a4757611a46613537565b5b604051908082528060200260200182016040528015611a7a57816020015b6060815260200190600190039081611a655790505b50905060005b611a8a60076121db565b811015611bb857600d60008281526020019081526020016000208054611aaf90613aec565b80601f0160208091040260200160405190810160405280929190818152602001828054611adb90613aec565b8015611b285780601f10611afd57610100808354040283529160200191611b28565b820191906000526020600020905b815481529060010190602001808311611b0b57829003601f168201915b5050505050828281518110611b4057611b3f6144b2565b5b6020026020010181905250611ba56040518060400160405280601781526020017f4e616d6520666f7220746f6b656e20256420697320257300000000000000000081525082848481518110611b9857611b976144b2565b5b6020026020010151612b9d565b8080611bb090614510565b915050611a80565b508091505090565b600080611c1084848080601f016020809104026020016040519081016040528093929190818152602001838380828437600081840152601f19601f820116905080830192505050505050506121e9565b905060008111611c1f57600080fd5b6003811415611c385766b1a2bc2ec50000915050611c5d565b6004811415611c5157666a94d74f430000915050611c5d565b662386f26fc100009150505b92915050565b611cfb8282604051602401611c79929190614559565b6040516020818303038152906040527f4b5c4277000000000000000000000000000000000000000000000000000000007bffffffffffffffffffffffffffffffffffffffffffffffffffffffff19166020820180517bffffffffffffffffffffffffffffffffffffffffffffffffffffffff8381831617835250505050612c3c565b5050565b60007f01ffc9a7000000000000000000000000000000000000000000000000000000007bffffffffffffffffffffffffffffffffffffffffffffffffffffffff1916827bffffffffffffffffffffffffffffffffffffffffffffffffffffffff1916149050919050565b60008073ffffffffffffffffffffffffffffffffffffffff166002600084815260200190815260200160002060009054906101000a900473ffffffffffffffffffffffffffffffffffffffff1673ffffffffffffffffffffffffffffffffffffffff1614159050919050565b600033905090565b816004600083815260200190815260200160002060006101000a81548173ffffffffffffffffffffffffffffffffffffffff021916908373ffffffffffffffffffffffffffffffffffffffff160217905550808273ffffffffffffffffffffffffffffffffffffffff16611e5083610e73565b73ffffffffffffffffffffffffffffffffffffffff167f8c5be1e5ebec7d5bd14f71427d1e84f3dd0314c0f7b2291e5b200ac8c7c3b92560405160405180910390a45050565b6000611ea182611d69565b611ee0576040517f08c379a0000000000000000000000000000000000000000000000000000000008152600401611ed790614602565b60405180910390fd5b6000611eeb83610e73565b90508073ffffffffffffffffffffffffffffffffffffffff168473ffffffffffffffffffffffffffffffffffffffff161480611f5a57508373ffffffffffffffffffffffffffffffffffffffff16611f428461089f565b73ffffffffffffffffffffffffffffffffffffffff16145b80611f6b5750611f6a8185611491565b5b91505092915050565b8273ffffffffffffffffffffffffffffffffffffffff16611f9482610e73565b73ffffffffffffffffffffffffffffffffffffffff1614611fea576040517f08c379a0000000000000000000000000000000000000000000000000000000008152600401611fe190614694565b60405180910390fd5b600073ffffffffffffffffffffffffffffffffffffffff168273ffffffffffffffffffffffffffffffffffffffff16141561205a576040517f08c379a000000000000000000000000000000000000000000000000000000000815260040161205190614726565b60405180910390fd5b612065838383612c65565b612070600082611ddd565b6001600360008573ffffffffffffffffffffffffffffffffffffffff1673ffffffffffffffffffffffffffffffffffffffff16815260200190815260200160002060008282546120c09190614746565b925050819055506001600360008473ffffffffffffffffffffffffffffffffffffffff1673ffffffffffffffffffffffffffffffffffffffff1681526020019081526020016000206000828254612117919061477a565b92505081905550816002600083815260200190815260200160002060006101000a81548173ffffffffffffffffffffffffffffffffffffffff021916908373ffffffffffffffffffffffffffffffffffffffff160217905550808273ffffffffffffffffffffffffffffffffffffffff168473ffffffffffffffffffffffffffffffffffffffff167fddf252ad1be2c89b69c2b068fc378daa952ba7f163c4a11628f55a4df523b3ef60405160405180910390a46121d6838383612c6a565b505050565b600081600001549050919050565b60008060008084519050600092505b80821015612393576000858381518110612215576122146144b2565b5b602001015160f81c60f81b9050608060f81b817effffffffffffffffffffffffffffffffffffffffffffffffffffffffffffff191610156122645760018361225d919061477a565b925061237f565b60e060f81b817effffffffffffffffffffffffffffffffffffffffffffffffffffffffffffff191610156122a65760028361229f919061477a565b925061237e565b60f060f81b817effffffffffffffffffffffffffffffffffffffffffffffffffffffffffffff191610156122e8576003836122e1919061477a565b925061237d565b60f8801b817effffffffffffffffffffffffffffffffffffffffffffffffffffffffffffff1916101561232957600483612322919061477a565b925061237c565b60fc60f81b817effffffffffffffffffffffffffffffffffffffffffffffffffffffffffffff1916101561236b57600583612364919061477a565b925061237b565b600683612378919061477a565b92505b5b5b5b5b50828061238b90614510565b9350506121f8565b829350505050919050565b8173ffffffffffffffffffffffffffffffffffffffff168373ffffffffffffffffffffffffffffffffffffffff16141561240d576040517f08c379a00000000000000000000000000000000000000000000000000000000081526004016124049061481c565b60405180910390fd5b80600560008573ffffffffffffffffffffffffffffffffffffffff1673ffffffffffffffffffffffffffffffffffffffff16815260200190815260200160002060008473ffffffffffffffffffffffffffffffffffffffff1673ffffffffffffffffffffffffffffffffffffffff16815260200190815260200160002060006101000a81548160ff0219169083151502179055508173ffffffffffffffffffffffffffffffffffffffff168373ffffffffffffffffffffffffffffffffffffffff167f17307eab39ab6107e8899845ad3d59bd9653f200f220920489ca2b5937696c31836040516124fe919061322c565b60405180910390a3505050565b612516848484611f74565b61252284848484612c6f565b612561576040517f08c379a0000000000000000000000000000000000000000000000000000000008152600401612558906148ae565b60405180910390fd5b50505050565b606060405180602001604052806000815250905090565b606061258982611d69565b6125c8576040517f08c379a00000000000000000000000000000000000000000000000000000000081526004016125bf90614940565b60405180910390fd5b60006125d2612567565b905060008151116125f2576040518060200160405280600081525061261d565b806125fc84612625565b60405160200161260d929190614048565b6040516020818303038152906040525b915050919050565b6060600082141561266d576040518060400160405280600181526020017f30000000000000000000000000000000000000000000000000000000000000008152509050612781565b600082905060005b6000821461269f57808061268890614510565b915050600a82612698919061498f565b9150612675565b60008167ffffffffffffffff8111156126bb576126ba613537565b5b6040519080825280601f01601f1916602001820160405280156126ed5781602001600182028036833780820191505090505b5090505b6000851461277a576001826127069190614746565b9150600a8561271591906149c0565b6030612721919061477a565b60f81b818381518110612737576127366144b2565b5b60200101907effffffffffffffffffffffffffffffffffffffffffffffffffffffffffffff1916908160001a905350600a85612773919061498f565b94506126f1565b8093505050505b919050565b612822848484846040516024016127a094939291906149f1565b6040516020818303038152906040527f9fd009f5000000000000000000000000000000000000000000000000000000007bffffffffffffffffffffffffffffffffffffffffffffffffffffffff19166020820180517bffffffffffffffffffffffffffffffffffffffffffffffffffffffff8381831617835250505050612c3c565b50505050565b6060600082519050600081141561285157604051806020016040528060008152509150506129bb565b60006003600283612862919061477a565b61286c919061498f565b60046128789190614a4b565b90506000602082612889919061477a565b67ffffffffffffffff8111156128a2576128a1613537565b5b6040519080825280601f01601f1916602001820160405280156128d45781602001600182028036833780820191505090505b5090506000604051806060016040528060408152602001614dd1604091399050600181016020830160005b868110156129785760038101905062ffffff818a015116603f8160121c168401518060081b905060ff603f83600c1c1686015116810190508060081b905060ff603f8360061c1686015116810190508060081b905060ff603f831686015116810190508060e01b905080845260048401935050506128ff565b50600386066001811461299257600281146129a2576129ad565b613d3d60f01b60028303526129ad565b603d60f81b60018303525b508484525050819450505050505b919050565b612a56816040516024016129d491906132e0565b6040516020818303038152906040527f41304fac000000000000000000000000000000000000000000000000000000007bffffffffffffffffffffffffffffffffffffffffffffffffffffffff19166020820180517bffffffffffffffffffffffffffffffffffffffffffffffffffffffff8381831617835250505050612c3c565b50565b612a73828260405180602001604052806000815250612df7565b5050565b612a8082611d69565b612abf576040517f08c379a0000000000000000000000000000000000000000000000000000000008152600401612ab690614b17565b60405180910390fd5b80600660008481526020019081526020016000209080519060200190612ae69291906130d5565b505050565b612b838282604051602401612b01929190614b37565b6040516020818303038152906040527f319af333000000000000000000000000000000000000000000000000000000007bffffffffffffffffffffffffffffffffffffffffffffffffffffffff19166020820180517bffffffffffffffffffffffffffffffffffffffffffffffffffffffff8381831617835250505050612c3c565b5050565b6001816000016000828254019250508190555050565b612c37838383604051602401612bb593929190614b67565b6040516020818303038152906040527fa3f5c739000000000000000000000000000000000000000000000000000000007bffffffffffffffffffffffffffffffffffffffffffffffffffffffff19166020820180517bffffffffffffffffffffffffffffffffffffffffffffffffffffffff8381831617835250505050612c3c565b505050565b60008151905060006a636f6e736f6c652e6c6f679050602083016000808483855afa5050505050565b505050565b505050565b6000612c908473ffffffffffffffffffffffffffffffffffffffff16612e52565b15612dea578373ffffffffffffffffffffffffffffffffffffffff1663150b7a02612cb9611dd5565b8786866040518563ffffffff1660e01b8152600401612cdb9493929190614c01565b6020604051808303816000875af1925050508015612d1757506040513d601f19601f82011682018060405250810190612d149190614c62565b60015b612d9a573d8060008114612d47576040519150601f19603f3d011682016040523d82523d6000602084013e612d4c565b606091505b50600081511415612d92576040517f08c379a0000000000000000000000000000000000000000000000000000000008152600401612d89906148ae565b60405180910390fd5b805181602001fd5b63150b7a0260e01b7bffffffffffffffffffffffffffffffffffffffffffffffffffffffff1916817bffffffffffffffffffffffffffffffffffffffffffffffffffffffff191614915050612def565b600190505b949350505050565b612e018383612e75565b612e0e6000848484612c6f565b612e4d576040517f08c379a0000000000000000000000000000000000000000000000000000000008152600401612e44906148ae565b60405180910390fd5b505050565b6000808273ffffffffffffffffffffffffffffffffffffffff163b119050919050565b600073ffffffffffffffffffffffffffffffffffffffff168273ffffffffffffffffffffffffffffffffffffffff161415612ee5576040517f08c379a0000000000000000000000000000000000000000000000000000000008152600401612edc90614cdb565b60405180910390fd5b612eee81611d69565b15612f2e576040517f08c379a0000000000000000000000000000000000000000000000000000000008152600401612f2590614d47565b60405180910390fd5b612f3a60008383612c65565b6001600360008473ffffffffffffffffffffffffffffffffffffffff1673ffffffffffffffffffffffffffffffffffffffff1681526020019081526020016000206000828254612f8a919061477a565b92505081905550816002600083815260200190815260200160002060006101000a81548173ffffffffffffffffffffffffffffffffffffffff021916908373ffffffffffffffffffffffffffffffffffffffff160217905550808273ffffffffffffffffffffffffffffffffffffffff16600073ffffffffffffffffffffffffffffffffffffffff167fddf252ad1be2c89b69c2b068fc378daa952ba7f163c4a11628f55a4df523b3ef60405160405180910390a461304b60008383612c6a565b5050565b82805461305b90613aec565b90600052602060002090601f01602090048101928261307d57600085556130c4565b82601f1061309657803560ff19168380011785556130c4565b828001600101855582156130c4579182015b828111156130c35782358255916020019190600101906130a8565b5b5090506130d1919061315b565b5090565b8280546130e190613aec565b90600052602060002090601f016020900481019282613103576000855561314a565b82601f1061311c57805160ff191683800117855561314a565b8280016001018555821561314a579182015b8281111561314957825182559160200191906001019061312e565b5b509050613157919061315b565b5090565b5b8082111561317457600081600090555060010161315c565b5090565b6000604051905090565b600080fd5b600080fd5b60007fffffffff0000000000000000000000000000000000000000000000000000000082169050919050565b6131c18161318c565b81146131cc57600080fd5b50565b6000813590506131de816131b8565b92915050565b6000602082840312156131fa576131f9613182565b5b6000613208848285016131cf565b91505092915050565b60008115159050919050565b61322681613211565b82525050565b6000602082019050613241600083018461321d565b92915050565b600081519050919050565b600082825260208201905092915050565b60005b83811015613281578082015181840152602081019050613266565b83811115613290576000848401525b50505050565b6000601f19601f8301169050919050565b60006132b282613247565b6132bc8185613252565b93506132cc818560208601613263565b6132d581613296565b840191505092915050565b600060208201905081810360008301526132fa81846132a7565b905092915050565b6000819050919050565b61331581613302565b811461332057600080fd5b50565b6000813590506133328161330c565b92915050565b60006020828403121561334e5761334d613182565b5b600061335c84828501613323565b91505092915050565b600073ffffffffffffffffffffffffffffffffffffffff82169050919050565b600061339082613365565b9050919050565b6133a081613385565b82525050565b60006020820190506133bb6000830184613397565b92915050565b6133ca81613385565b81146133d557600080fd5b50565b6000813590506133e7816133c1565b92915050565b6000806040838503121561340457613403613182565b5b6000613412858286016133d8565b925050602061342385828601613323565b9150509250929050565b600080fd5b600080fd5b600080fd5b60008083601f8401126134525761345161342d565b5b8235905067ffffffffffffffff81111561346f5761346e613432565b5b60208301915083600182028301111561348b5761348a613437565b5b9250929050565b600080602083850312156134a9576134a8613182565b5b600083013567ffffffffffffffff8111156134c7576134c6613187565b5b6134d38582860161343c565b92509250509250929050565b6000806000606084860312156134f8576134f7613182565b5b6000613506868287016133d8565b9350506020613517868287016133d8565b925050604061352886828701613323565b9150509250925092565b600080fd5b7f4e487b7100000000000000000000000000000000000000000000000000000000600052604160045260246000fd5b61356f82613296565b810181811067ffffffffffffffff8211171561358e5761358d613537565b5b80604052505050565b60006135a1613178565b90506135ad8282613566565b919050565b600067ffffffffffffffff8211156135cd576135cc613537565b5b6135d682613296565b9050602081019050919050565b82818337600083830152505050565b6000613605613600846135b2565b613597565b90508281526020810184848401111561362157613620613532565b5b61362c8482856135e3565b509392505050565b600082601f8301126136495761364861342d565b5b81356136598482602086016135f2565b91505092915050565b60006020828403121561367857613677613182565b5b600082013567ffffffffffffffff81111561369657613695613187565b5b6136a284828501613634565b91505092915050565b6136b481613302565b82525050565b60006020820190506136cf60008301846136ab565b92915050565b6000602082840312156136eb576136ea613182565b5b60006136f9848285016133d8565b91505092915050565b600061370d82613365565b9050919050565b61371d81613702565b82525050565b60006020820190506137386000830184613714565b92915050565b61374781613211565b811461375257600080fd5b50565b6000813590506137648161373e565b92915050565b6000806040838503121561378157613780613182565b5b600061378f858286016133d8565b92505060206137a085828601613755565b9150509250929050565b600067ffffffffffffffff8211156137c5576137c4613537565b5b6137ce82613296565b9050602081019050919050565b60006137ee6137e9846137aa565b613597565b90508281526020810184848401111561380a57613809613532565b5b6138158482856135e3565b509392505050565b600082601f8301126138325761383161342d565b5b81356138428482602086016137db565b91505092915050565b6000806000806080858703121561386557613864613182565b5b6000613873878288016133d8565b9450506020613884878288016133d8565b935050604061389587828801613323565b925050606085013567ffffffffffffffff8111156138b6576138b5613187565b5b6138c28782880161381d565b91505092959194509250565b600080600080604085870312156138e8576138e7613182565b5b600085013567ffffffffffffffff81111561390657613905613187565b5b6139128782880161343c565b9450945050602085013567ffffffffffffffff81111561393557613934613187565b5b6139418782880161343c565b925092505092959194509250565b6000806040838503121561396657613965613182565b5b6000613974858286016133d8565b9250506020613985858286016133d8565b9150509250929050565b600081519050919050565b600082825260208201905092915050565b6000819050602082019050919050565b600082825260208201905092915050565b60006139d782613247565b6139e181856139bb565b93506139f1818560208601613263565b6139fa81613296565b840191505092915050565b6000613a1183836139cc565b905092915050565b6000602082019050919050565b6000613a318261398f565b613a3b818561399a565b935083602082028501613a4d856139ab565b8060005b85811015613a895784840389528151613a6a8582613a05565b9450613a7583613a19565b925060208a01995050600181019050613a51565b50829750879550505050505092915050565b60006020820190508181036000830152613ab58184613a26565b905092915050565b7f4e487b7100000000000000000000000000000000000000000000000000000000600052602260045260246000fd5b60006002820490506001821680613b0457607f821691505b60208210811415613b1857613b17613abd565b5b50919050565b7f4552433732313a20617070726f76656420717565727920666f72206e6f6e657860008201527f697374656e7420746f6b656e0000000000000000000000000000000000000000602082015250565b6000613b7a602c83613252565b9150613b8582613b1e565b604082019050919050565b60006020820190508181036000830152613ba981613b6d565b9050919050565b7f4552433732313a20617070726f76616c20746f2063757272656e74206f776e6560008201527f7200000000000000000000000000000000000000000000000000000000000000602082015250565b6000613c0c602183613252565b9150613c1782613bb0565b604082019050919050565b60006020820190508181036000830152613c3b81613bff565b9050919050565b7f4552433732313a20617070726f76652063616c6c6572206973206e6f74206f7760008201527f6e6572206e6f7220617070726f76656420666f7220616c6c0000000000000000602082015250565b6000613c9e603883613252565b9150613ca982613c42565b604082019050919050565b60006020820190508181036000830152613ccd81613c91565b9050919050565b600081905092915050565b6000613ceb8385613cd4565b9350613cf88385846135e3565b82840190509392505050565b6000613d11828486613cdf565b91508190509392505050565b7f4552433732313a207472616e736665722063616c6c6572206973206e6f74206f60008201527f776e6572206e6f7220617070726f766564000000000000000000000000000000602082015250565b6000613d79603183613252565b9150613d8482613d1d565b604082019050919050565b60006020820190508181036000830152613da881613d6c565b9050919050565b600081905092915050565b50565b6000613dca600083613daf565b9150613dd582613dba565b600082019050919050565b6000613deb82613dbd565b9150819050919050565b7f4661696c656420746f207769746864726177204d617469630000000000000000600082015250565b6000613e2b601883613252565b9150613e3682613df5565b602082019050919050565b60006020820190508181036000830152613e5a81613e1e565b9050919050565b7f4552433732313a206f776e657220717565727920666f72206e6f6e657869737460008201527f656e7420746f6b656e0000000000000000000000000000000000000000000000602082015250565b6000613ebd602983613252565b9150613ec882613e61565b604082019050919050565b60006020820190508181036000830152613eec81613eb0565b9050919050565b7f4552433732313a2062616c616e636520717565727920666f7220746865207a6560008201527f726f206164647265737300000000000000000000000000000000000000000000602082015250565b6000613f4f602a83613252565b9150613f5a82613ef3565b604082019050919050565b60006020820190508181036000830152613f7e81613f42565b9050919050565b7f45524337323155524953746f726167653a2055524920717565727920666f722060008201527f6e6f6e6578697374656e7420746f6b656e000000000000000000000000000000602082015250565b6000613fe1603183613252565b9150613fec82613f85565b604082019050919050565b6000602082019050818103600083015261401081613fd4565b9050919050565b600061402282613247565b61402c8185613cd4565b935061403c818560208601613263565b80840191505092915050565b60006140548285614017565b91506140608284614017565b91508190509392505050565b60006140788385613252565b93506140858385846135e3565b61408e83613296565b840190509392505050565b600060208201905081810360008301526140b481848661406c565b90509392505050565b7f4e6f7420656e6f756768204d6174696320706169640000000000000000000000600082015250565b60006140f3601583613252565b91506140fe826140bd565b602082019050919050565b60006020820190508181036000830152614122816140e6565b9050919050565b7f2e00000000000000000000000000000000000000000000000000000000000000600082015250565b600061415f600183613cd4565b915061416a82614129565b600182019050919050565b60008190508160005260206000209050919050565b6000815461419781613aec565b6141a18186613cd4565b945060018216600081146141bc57600181146141cd57614200565b60ff19831686528186019350614200565b6141d685614175565b60005b838110156141f8578154818901526001820191506020810190506141d9565b838801955050505b50505092915050565b6000614216828587613cdf565b915061422182614152565b915061422d828461418a565b9150819050949350505050565b6000614246828661418a565b91506142528285614017565b915061425e828461418a565b9150819050949350505050565b7f7b226e616d65223a202200000000000000000000000000000000000000000000600082015250565b60006142a1600a83613cd4565b91506142ac8261426b565b600a82019050919050565b7f222c20226465736372697074696f6e223a20224120646f6d61696e206f6e207460008201527f686520466c616d6275204e616d652053657276696365222c2022696d6167652260208201527f3a2022646174613a696d6167652f7376672b786d6c3b6261736536342c000000604082015250565b6000614339605d83613cd4565b9150614344826142b7565b605d82019050919050565b7f222c226c656e677468223a220000000000000000000000000000000000000000600082015250565b6000614385600c83613cd4565b91506143908261434f565b600c82019050919050565b7f227d000000000000000000000000000000000000000000000000000000000000600082015250565b60006143d1600283613cd4565b91506143dc8261439b565b600282019050919050565b60006143f282614294565b91506143fe8286614017565b91506144098261432c565b91506144158285614017565b915061442082614378565b915061442c8284614017565b9150614437826143c4565b9150819050949350505050565b7f646174613a6170706c69636174696f6e2f6a736f6e3b6261736536342c000000600082015250565b600061447a601d83613cd4565b915061448582614444565b601d82019050919050565b600061449b8261446d565b91506144a78284614017565b915081905092915050565b7f4e487b7100000000000000000000000000000000000000000000000000000000600052603260045260246000fd5b7f4e487b7100000000000000000000000000000000000000000000000000000000600052601160045260246000fd5b600061451b82613302565b91507fffffffffffffffffffffffffffffffffffffffffffffffffffffffffffffffff82141561454e5761454d6144e1565b5b600182019050919050565b6000604082019050818103600083015261457381856132a7565b9050818103602083015261458781846132a7565b90509392505050565b7f4552433732313a206f70657261746f7220717565727920666f72206e6f6e657860008201527f697374656e7420746f6b656e0000000000000000000000000000000000000000602082015250565b60006145ec602c83613252565b91506145f782614590565b604082019050919050565b6000602082019050818103600083015261461b816145df565b9050919050565b7f4552433732313a207472616e736665722066726f6d20696e636f72726563742060008201527f6f776e6572000000000000000000000000000000000000000000000000000000602082015250565b600061467e602583613252565b915061468982614622565b604082019050919050565b600060208201905081810360008301526146ad81614671565b9050919050565b7f4552433732313a207472616e7366657220746f20746865207a65726f2061646460008201527f7265737300000000000000000000000000000000000000000000000000000000602082015250565b6000614710602483613252565b915061471b826146b4565b604082019050919050565b6000602082019050818103600083015261473f81614703565b9050919050565b600061475182613302565b915061475c83613302565b92508282101561476f5761476e6144e1565b5b828203905092915050565b600061478582613302565b915061479083613302565b9250827fffffffffffffffffffffffffffffffffffffffffffffffffffffffffffffffff038211156147c5576147c46144e1565b5b828201905092915050565b7f4552433732313a20617070726f766520746f2063616c6c657200000000000000600082015250565b6000614806601983613252565b9150614811826147d0565b602082019050919050565b60006020820190508181036000830152614835816147f9565b9050919050565b7f4552433732313a207472616e7366657220746f206e6f6e20455243373231526560008201527f63656976657220696d706c656d656e7465720000000000000000000000000000602082015250565b6000614898603283613252565b91506148a38261483c565b604082019050919050565b600060208201905081810360008301526148c78161488b565b9050919050565b7f4552433732314d657461646174613a2055524920717565727920666f72206e6f60008201527f6e6578697374656e7420746f6b656e0000000000000000000000000000000000602082015250565b600061492a602f83613252565b9150614935826148ce565b604082019050919050565b600060208201905081810360008301526149598161491d565b9050919050565b7f4e487b7100000000000000000000000000000000000000000000000000000000600052601260045260246000fd5b600061499a82613302565b91506149a583613302565b9250826149b5576149b4614960565b5b828204905092915050565b60006149cb82613302565b91506149d683613302565b9250826149e6576149e5614960565b5b828206905092915050565b60006080820190508181036000830152614a0b81876132a7565b90508181036020830152614a1f81866132a7565b90508181036040830152614a3381856132a7565b9050614a4260608301846136ab565b95945050505050565b6000614a5682613302565b9150614a6183613302565b9250817fffffffffffffffffffffffffffffffffffffffffffffffffffffffffffffffff0483118215151615614a9a57614a996144e1565b5b828202905092915050565b7f45524337323155524953746f726167653a2055524920736574206f66206e6f6e60008201527f6578697374656e7420746f6b656e000000000000000000000000000000000000602082015250565b6000614b01602e83613252565b9150614b0c82614aa5565b604082019050919050565b60006020820190508181036000830152614b3081614af4565b9050919050565b60006040820190508181036000830152614b5181856132a7565b9050614b606020830184613397565b9392505050565b60006060820190508181036000830152614b8181866132a7565b9050614b9060208301856136ab565b8181036040830152614ba281846132a7565b9050949350505050565b600081519050919050565b600082825260208201905092915050565b6000614bd382614bac565b614bdd8185614bb7565b9350614bed818560208601613263565b614bf681613296565b840191505092915050565b6000608082019050614c166000830187613397565b614c236020830186613397565b614c3060408301856136ab565b8181036060830152614c428184614bc8565b905095945050505050565b600081519050614c5c816131b8565b92915050565b600060208284031215614c7857614c77613182565b5b6000614c8684828501614c4d565b91505092915050565b7f4552433732313a206d696e7420746f20746865207a65726f2061646472657373600082015250565b6000614cc5602083613252565b9150614cd082614c8f565b602082019050919050565b60006020820190508181036000830152614cf481614cb8565b9050919050565b7f4552433732313a20746f6b656e20616c7265616479206d696e74656400000000600082015250565b6000614d31601c83613252565b9150614d3c82614cfb565b602082019050919050565b60006020820190508181036000830152614d6081614d24565b905091905056fe5265676973746572696e672025732e2573206f6e2074686520636f6e7472616374207769746820746f6b656e49442025640a2d2d2d2d2d2d2d2d2d2d2d2d2d2d2d2d2d2d2d2d2d2d2d2d2d2d2d2d2d2d2d2d2d2d2d2d2d2d2d2d2d2d2d2d2d2d2d2d2d2d2d2d2d2d2d4142434445464748494a4b4c4d4e4f505152535455565758595a6162636465666768696a6b6c6d6e6f707172737475767778797a303132333435363738392b2fa264697066735822122077380cfb0e271a89f911594a62c44efa5e8076b4d7d34131c597f7e56379379b64736f6c634300080a00333c7376672077696474683d2232373022206865696768743d22323730222076696577426f783d223020302032373020323730222066696c6c3d226e6f6e652220786d6c6e733d22687474703a2f2f7777772e77332e6f72672f323030302f737667223e3c706174682066696c6c3d22234535453545352220643d224d302030683237307632373048307a222f3e3c7061746820643d224d3020306832373076323730483056305a222066696c6c3d2275726c28236129222f3e3c672066696c7465723d2275726c28236229223e3c706174682066696c6c2d72756c653d226576656e6f64642220636c69702d72756c653d226576656e6f64642220643d224d35312e3439342032322e36333763322e3037342d2e38323120342e3238352d2e38323820362e333537203061392e32393920392e32393920302030203120332e33363520322e3331316c32352e3732332032372e3235336131302e3335372031302e33353720302030203120322e37393420372e3134392031302e3335342031302e3335342030203020312d322e373920372e3134364c36312e3231382039332e37353161392e33303120392e3330312030203020312d332e33363520322e333120392e31393420392e3139342030203020312d332e3136362e36353320392e33383620392e3338362030203020312d362e3539322d322e3936336c2d32352e39362d32372e3235356131302e3330322031302e3330322030203020312d322e3831372d372e3134362031302e3330352031302e33303520302030203120322e38322d372e31354c34382e312032342e39343961392e33383620392e33383620302030203120332e3339352d322e3331315a6d332e3139342036362e32343663312e3538362d312e36333820372e3137372d372e343120382e34372d382e37363220312e3531332d312e353820322e33392d342e32373520322e3338372d352e34303761382e38343420382e3834342030203020302d322e3338362d362e3130346c2d382e3435362d382e39362d382e35363520382e393661382e3820382e382030203020302d322e34303920362e313034632d2e30303220312e3133322e38383320332e38323620322e343120352e34303720312e33303520312e33353220362e39343720372e31323420382e35343920382e3736325a6d312e3939312d33322e33353161342e35393120342e35393120302030203120312e36363720312e3134356c31322e3733392031332e343936632e3034382e30352e3039352e3130312e31342e3135346131372e3837372031372e38373720302030203020342e3439382d31312e3937372031372e3835362031372e3835362030203020302d342e38322d31322e33334c35342e3638392032392e38342033382e3332322034372e30326131372e3736392031372e3736392030203020302d342e3836352031322e33332031372e3738342031372e37383420302030203020342e35342031312e393737632e3034362d2e3035332e3039332d2e3130342e3134322d2e3135346c31322e3835372d31332e34393661342e36343420342e36343420302030203120312e3638312d312e31343563312e3138382d2e343720322e3831352d2e34373520342e30303220305a222066696c6c3d2223666666222f3e3c2f673e3c646566733e3c6c696e6561724772616469656e742069643d2261222078313d2230222079313d2230222078323d22323730222079323d2232373022206772616469656e74556e6974733d227573657253706163654f6e557365223e3c73746f702073746f702d636f6c6f723d2223313538304338222f3e3c73746f70206f66667365743d2231222073746f702d636f6c6f723d2223303932443435222073746f702d6f7061636974793d222e3939222f3e3c2f6c696e6561724772616469656e743e3c66696c7465722069643d22622220783d2231392e3331382220793d2232322e303138222077696474683d2237302e34313522206865696768743d2238302e363935222066696c746572556e6974733d227573657253706163654f6e5573652220636f6c6f722d696e746572706f6c6174696f6e2d66696c746572733d2273524742223e3c6665466c6f6f6420666c6f6f642d6f7061636974793d22302220726573756c743d224261636b67726f756e64496d616765466978222f3e3c6665426c656e6420696e3d22536f75726365477261706869632220696e323d224261636b67726f756e64496d6167654669782220726573756c743d227368617065222f3e3c6665436f6c6f724d617472697820696e3d22536f75726365416c706861222076616c7565733d2230203020302030203020302030203020302030203020302030203020302030203020302031323720302220726573756c743d2268617264416c706861222f3e3c66654f66667365742064793d2236222f3e3c6665476175737369616e426c757220737464446576696174696f6e3d2237222f3e3c6665436f6d706f7369746520696e323d2268617264416c70686122206f70657261746f723d2261726974686d6574696322206b323d222d3122206b333d2231222f3e3c6665436f6c6f724d61747269782076616c7565733d22302030203020302030203020302030203020302030203020302030203020302030203020302e32362030222f3e3c6665426c656e64206d6f64653d22636f6c6f722d6275726e2220696e323d2273686170652220726573756c743d22656666656374315f696e6e6572536861646f775f305f31222f3e3c2f66696c7465723e3c2f646566733e3c746578742066696c6c3d22236666662220786d6c3a73706163653d22707265736572766522207374796c653d2277686974652d73706163653a7072652220666f6e742d66616d696c793d22526f626f746f2220666f6e742d73697a653d2232372220666f6e742d7765696768743d22626f6c6422206c65747465722d73706163696e673d2230656d223e3c747370616e20783d2233322e352220793d223232392e323239223e",
    "linkReferences": {},
    "deployedLinkReferences": {}
}